{
	"data": {
		"bytecode": {
			"linkReferences": {},
			"object": "6080604052348015600e575f80fd5b5060928061001b5f395ff3fe6080604052348015600e575f80fd5b50600436106026575f3560e01c8063a92100cb14602a575b5f80fd5b60306032565b005b5f5b600a8110156059576003810315604d5760058103156059575b80806001019150506034565b5056fea26469706673582212206e3db948f9dcc94814fc5e12b93a45847d1475e8423dd862546d18d9c9d7916a64736f6c63430008180033",
			"opcodes": "PUSH1 0x80 PUSH1 0x40 MSTORE CALLVALUE DUP1 ISZERO PUSH1 0xE JUMPI PUSH0 DUP1 REVERT JUMPDEST POP PUSH1 0x92 DUP1 PUSH2 0x1B PUSH0 CODECOPY PUSH0 RETURN INVALID PUSH1 0x80 PUSH1 0x40 MSTORE CALLVALUE DUP1 ISZERO PUSH1 0xE JUMPI PUSH0 DUP1 REVERT JUMPDEST POP PUSH1 0x4 CALLDATASIZE LT PUSH1 0x26 JUMPI PUSH0 CALLDATALOAD PUSH1 0xE0 SHR DUP1 PUSH4 0xA92100CB EQ PUSH1 0x2A JUMPI JUMPDEST PUSH0 DUP1 REVERT JUMPDEST PUSH1 0x30 PUSH1 0x32 JUMP JUMPDEST STOP JUMPDEST PUSH0 JUMPDEST PUSH1 0xA DUP2 LT ISZERO PUSH1 0x59 JUMPI PUSH1 0x3 DUP2 SUB ISZERO PUSH1 0x4D JUMPI PUSH1 0x5 DUP2 SUB ISZERO PUSH1 0x59 JUMPI JUMPDEST DUP1 DUP1 PUSH1 0x1 ADD SWAP2 POP POP PUSH1 0x34 JUMP JUMPDEST POP JUMP INVALID LOG2 PUSH5 0x6970667358 0x22 SLT KECCAK256 PUSH15 0x3DB948F9DCC94814FC5E12B93A4584 PUSH30 0x1475E8423DD862546D18D9C9D7916A64736F6C6343000818003300000000 "
		},
		"gasEstimates": {
			"creation": {
				"codeDepositCost": "29200",
				"executionCost": "79",
				"totalCost": "29279"
			},
			"external": {
				"loop()": "infinite"
			}
		},
		"methodIdentifiers": {
			"loop()": "a92100cb"
		}
	},
	"abi": [
		{
			"inputs": [],
			"name": "loop",
			"outputs": [],
			"stateMutability": "pure",
			"type": "function"
		}
	]
}